{
  "_format": "hh-sol-artifact-1",
  "contractName": "Lock",
  "sourceName": "contracts/Lock.sol",
  "abi": [
    {
      "inputs": [
        {
          "internalType": "uint256",
          "name": "_unlockTime",
          "type": "uint256"
        }
      ],
      "stateMutability": "payable",
      "type": "constructor"
    },
    {
      "anonymous": false,
      "inputs": [
        {
          "indexed": true,
          "internalType": "address",
          "name": "user",
          "type": "address"
        },
        {
          "indexed": false,
          "internalType": "uint256",
          "name": "amount",
          "type": "uint256"
        }
      ],
      "name": "DepositMade",
      "type": "event"
    },
    {
      "anonymous": false,
      "inputs": [
        {
          "indexed": false,
          "internalType": "uint256",
          "name": "newUnlockTime",
          "type": "uint256"
        }
      ],
      "name": "UnlockTimeUpdated",
      "type": "event"
    },
    {
      "anonymous": false,
      "inputs": [
        {
          "indexed": false,
          "internalType": "address",
          "name": "user",
          "type": "address"
        },
        {
          "indexed": false,
          "internalType": "uint256",
          "name": "amount",
          "type": "uint256"
        },
        {
          "indexed": false,
          "internalType": "uint256",
          "name": "when",
          "type": "uint256"
        }
      ],
      "name": "Withdrawal",
      "type": "event"
    },
    {
      "inputs": [
        {
          "internalType": "address",
          "name": "",
          "type": "address"
        }
      ],
      "name": "deposits",
      "outputs": [
        {
          "internalType": "uint256",
          "name": "",
          "type": "uint256"
        }
      ],
      "stateMutability": "view",
      "type": "function"
    },
    {
      "inputs": [],
      "name": "getBalance",
      "outputs": [
        {
          "internalType": "uint256",
          "name": "",
          "type": "uint256"
        }
      ],
      "stateMutability": "view",
      "type": "function"
    },
    {
      "inputs": [],
      "name": "getDeposit",
      "outputs": [
        {
          "internalType": "uint256",
          "name": "",
          "type": "uint256"
        }
      ],
      "stateMutability": "view",
      "type": "function"
    },
    {
      "inputs": [],
      "name": "owner",
      "outputs": [
        {
          "internalType": "address payable",
          "name": "",
          "type": "address"
        }
      ],
      "stateMutability": "view",
      "type": "function"
    },
    {
      "inputs": [
        {
          "internalType": "uint256",
          "name": "amount",
          "type": "uint256"
        }
      ],
      "name": "save",
      "outputs": [],
      "stateMutability": "payable",
      "type": "function"
    },
    {
      "inputs": [],
      "name": "unlock",
      "outputs": [],
      "stateMutability": "nonpayable",
      "type": "function"
    },
    {
      "inputs": [],
      "name": "unlockTime",
      "outputs": [
        {
          "internalType": "uint256",
          "name": "",
          "type": "uint256"
        }
      ],
      "stateMutability": "view",
      "type": "function"
    },
    {
      "inputs": [
        {
          "internalType": "uint256",
          "name": "amount",
          "type": "uint256"
        }
      ],
      "name": "withdraw",
      "outputs": [],
      "stateMutability": "nonpayable",
      "type": "function"
    }
  ],
  "bytecode": "0x608060405260405162000e6638038062000e668339818101604052810190620000299190620000fd565b8042106200006e576040517f08c379a00000000000000000000000000000000000000000000000000000000081526004016200006590620001b6565b60405180910390fd5b8060008190555033600160006101000a81548173ffffffffffffffffffffffffffffffffffffffff021916908373ffffffffffffffffffffffffffffffffffffffff16021790555050620001d8565b600080fd5b6000819050919050565b620000d781620000c2565b8114620000e357600080fd5b50565b600081519050620000f781620000cc565b92915050565b600060208284031215620001165762000115620000bd565b5b60006200012684828501620000e6565b91505092915050565b600082825260208201905092915050565b7f556e6c6f636b2074696d652073686f756c6420626520696e207468652066757460008201527f7572650000000000000000000000000000000000000000000000000000000000602082015250565b60006200019e6023836200012f565b9150620001ab8262000140565b604082019050919050565b60006020820190508181036000830152620001d1816200018f565b9050919050565b610c7e80620001e86000396000f3fe60806040526004361061007b5760003560e01c80638da5cb5b1161004e5780638da5cb5b1461011b578063a69df4b514610146578063c399ec881461015d578063fc7e286d146101885761007b565b806312065fe0146100805780631b862027146100ab578063251c1aa3146100c75780632e1a7d4d146100f2575b600080fd5b34801561008c57600080fd5b506100956101c5565b6040516100a291906107f7565b60405180910390f35b6100c560048036038101906100c09190610843565b6101cd565b005b3480156100d357600080fd5b506100dc610311565b6040516100e991906107f7565b60405180910390f35b3480156100fe57600080fd5b5061011960048036038101906101149190610843565b610317565b005b34801561012757600080fd5b50610130610502565b60405161013d91906108b1565b60405180910390f35b34801561015257600080fd5b5061015b610528565b005b34801561016957600080fd5b506101726105fa565b60405161017f91906107f7565b60405180910390f35b34801561019457600080fd5b506101af60048036038101906101aa919061090a565b610641565b6040516101bc91906107f7565b60405180910390f35b600047905090565b60008111610210576040517f08c379a000000000000000000000000000000000000000000000000000000000815260040161020790610994565b60405180910390fd5b61021a8133610659565b610223336106f5565b3073ffffffffffffffffffffffffffffffffffffffff166108fc829081150290604051600060405180830381858888f19350505050158015610269573d6000803e3d6000fd5b5080600260003373ffffffffffffffffffffffffffffffffffffffff1673ffffffffffffffffffffffffffffffffffffffff16815260200190815260200160002060008282546102b991906109e3565b925050819055503373ffffffffffffffffffffffffffffffffffffffff167fd15c9547ea5c06670c0010ce19bc32d54682a4b3801ece7f3ab0c3f17106b4bb8260405161030691906107f7565b60405180910390a250565b60005481565b60005442101561035c576040517f08c379a000000000000000000000000000000000000000000000000000000000815260040161035390610a63565b60405180910390fd5b6000811161039f576040517f08c379a000000000000000000000000000000000000000000000000000000000815260040161039690610994565b60405180910390fd5b6000600260003373ffffffffffffffffffffffffffffffffffffffff1673ffffffffffffffffffffffffffffffffffffffff16815260200190815260200160002054905081811015610426576040517f08c379a000000000000000000000000000000000000000000000000000000000815260040161041d90610acf565b60405180910390fd5b7fdf273cb619d95419a9cd0ec88123a0538c85064229baa6363788f743fff90deb33834260405161045993929190610afe565b60405180910390a181600260003373ffffffffffffffffffffffffffffffffffffffff1673ffffffffffffffffffffffffffffffffffffffff16815260200190815260200160002060008282546104b09190610b35565b925050819055503373ffffffffffffffffffffffffffffffffffffffff166108fc839081150290604051600060405180830381858888f193505050501580156104fd573d6000803e3d6000fd5b505050565b600160009054906101000a900473ffffffffffffffffffffffffffffffffffffffff1681565b600160009054906101000a900473ffffffffffffffffffffffffffffffffffffffff1673ffffffffffffffffffffffffffffffffffffffff163373ffffffffffffffffffffffffffffffffffffffff16146105b8576040517f08c379a00000000000000000000000000000000000000000000000000000000081526004016105af90610bb5565b60405180910390fd5b426000819055507f6669a6c779a56629103733bcba993d66b30b061559b41f3c64bd2661cd9ea3c16000546040516105f091906107f7565b60405180910390a1565b6000600260003373ffffffffffffffffffffffffffffffffffffffff1673ffffffffffffffffffffffffffffffffffffffff16815260200190815260200160002054905090565b60026020528060005260406000206000915090505481565b6106f1828260405160240161066f929190610bd5565b6040516020818303038152906040527f69276c86000000000000000000000000000000000000000000000000000000007bffffffffffffffffffffffffffffffffffffffffffffffffffffffff19166020820180517bffffffffffffffffffffffffffffffffffffffffffffffffffffffff838183161783525050505061078e565b5050565b61078b816040516024016107099190610bfe565b6040516020818303038152906040527f2c2ecbc2000000000000000000000000000000000000000000000000000000007bffffffffffffffffffffffffffffffffffffffffffffffffffffffff19166020820180517bffffffffffffffffffffffffffffffffffffffffffffffffffffffff838183161783525050505061078e565b50565b6107a58161079d6107a86107c9565b63ffffffff16565b50565b60006a636f6e736f6c652e6c6f679050600080835160208501845afa505050565b6107d4819050919050565b6107dc610c19565b565b6000819050919050565b6107f1816107de565b82525050565b600060208201905061080c60008301846107e8565b92915050565b600080fd5b610820816107de565b811461082b57600080fd5b50565b60008135905061083d81610817565b92915050565b60006020828403121561085957610858610812565b5b60006108678482850161082e565b91505092915050565b600073ffffffffffffffffffffffffffffffffffffffff82169050919050565b600061089b82610870565b9050919050565b6108ab81610890565b82525050565b60006020820190506108c660008301846108a2565b92915050565b60006108d782610870565b9050919050565b6108e7816108cc565b81146108f257600080fd5b50565b600081359050610904816108de565b92915050565b6000602082840312156109205761091f610812565b5b600061092e848285016108f5565b91505092915050565b600082825260208201905092915050565b7f416d6f756e74206d7573742062652067726561746572207468616e2030000000600082015250565b600061097e601d83610937565b915061098982610948565b602082019050919050565b600060208201905081810360008301526109ad81610971565b9050919050565b7f4e487b7100000000000000000000000000000000000000000000000000000000600052601160045260246000fd5b60006109ee826107de565b91506109f9836107de565b9250828201905080821115610a1157610a106109b4565b5b92915050565b7f596f752063616e27742077697468647261772079657400000000000000000000600082015250565b6000610a4d601683610937565b9150610a5882610a17565b602082019050919050565b60006020820190508181036000830152610a7c81610a40565b9050919050565b7f496e73756666696369656e742066756e64730000000000000000000000000000600082015250565b6000610ab9601283610937565b9150610ac482610a83565b602082019050919050565b60006020820190508181036000830152610ae881610aac565b9050919050565b610af8816108cc565b82525050565b6000606082019050610b136000830186610aef565b610b2060208301856107e8565b610b2d60408301846107e8565b949350505050565b6000610b40826107de565b9150610b4b836107de565b9250828203905081811115610b6357610b626109b4565b5b92915050565b7f596f7520617265206e6f7420746865206f776e65720000000000000000000000600082015250565b6000610b9f601583610937565b9150610baa82610b69565b602082019050919050565b60006020820190508181036000830152610bce81610b92565b9050919050565b6000604082019050610bea60008301856107e8565b610bf76020830184610aef565b9392505050565b6000602082019050610c136000830184610aef565b92915050565b7f4e487b7100000000000000000000000000000000000000000000000000000000600052605160045260246000fdfea264697066735822122027cc271906e37eee9dffb6fcef103fe5a51c3328b56ed26b2d1318b19ba8ac0f64736f6c63430008180033",
  "linkReferences": {},
  "deployedLinkReferences": {}
}